:020000040800F2
:10000000D83900209D010008D72C000819200008CD
:10001000D52C000883030008C53400080000000048
:1000200000000000000000000000000005010008C2
:10003000750400080000000049010008F1300008C4
:10004000B7010008B7010008B7010008B7010008B0
:10005000B7010008B7010008B7010008B7010008A0
:10006000B7010008B7010008B7010008B701000890
:10007000B7010008B7010008B7010008B701000880
:10008000B7010008B7010008B7010008B701000870
:10009000B7010008B7010008B7010008B701000860
:1000A000B7010008B7010008B7010008B701000850
:1000B000B7010008B70100089D310008B70100082A
:1000C000B7010008B7010008B7010008B701000830
:1000D000B7010008B7010008B7010008B701000820
:1000E00077040008B7010008B7010008DFF810D056
:1000F00000F0DAF80048004705350008AFF300804B
:10010000D8390020224B19680868B0E8F00F80F356
:100110000988BFF36F8F4FF0000080F311884EF015
:100120000D0E70470000000006480068006880F36C
:10013000088862B661B6BFF34F8FBFF36F8F00DFE1
:1001400000BF00BF08ED00E0EFF30980BFF36F8F41
:100150000F4B1A6820E9F00F106008B54FF05000FF
:1001600080F31188BFF34F8FBFF36F8F04F09EF8B9
:100170004FF0000080F31188BDE808401968086856
:10018000B0E8F00F80F30988BFF36F8F704700BFAE
:10019000BC0F0020EFF30580704700000648804741
:1001A00006480047FEE7FEE7FEE7FEE7FEE7FEE75C
:1001B000FEE7FEE7FEE7FEE799310008ED000008E4
:1001C0002DE9F05F0546002092469B46884606468C
:1001D000814640241BE0284641464746224600F01F
:1001E00020F853465A46C01A914110D3114618467A
:1001F000224600F04AF82D1A67EB01084F462246C6
:100200000120002100F041F817EB00094E41201EAB
:10021000A4F10104DFDC484631462A464346BDE8E6
:10022000F09F202A04DB203A21FA02F000217047D7
:1002300021FA02F3D040C2F120029140084319464E
:10024000704740EA01039B0703D009E008C9121F69
:1002500008C0042AFAD203E011F8013B00F8013B80
:10026000521EF9D27047D2B201E000F8012B491EAC
:10027000FBD270470022F6E710B513460A46044643
:100280001946FFF7F0FF204610BD202A04DB203A74
:1002900000FA02F1002070479140C2F1200320FAD9
:1002A00003F3194390407047064C074D06E0E068A1
:1002B00040F0010394E8070098471034AC42F6D3AD
:1002C000FFF718FFB0550008D055000870B58D181D
:1002D00010F8014B14F0030201D110F8012B231187
:1002E00006D110F8013B03E010F8016B01F8016B37
:1002F000521EF9D1ABB110F8012B04F00C048A1A8C
:100300000C2C03D0A2EB84129B1C08E010F8014BCC
:10031000A2EB0422F8E712F8014B01F8014B5B1E37
:10032000F9D5A942D4D3002070BD000070B50446B1
:1003300000688168C943C90717D1816821F00101AC
:10034000816000F009FB05460AE000BF00F004FBF5
:10035000401B022804D920688068C043C00706D02B
:1003600020688068C043C007F0D0002070BDA06A3C
:1003700040F01000A062E06A40F00100E06201205D
:1003800070BDFEE770B5C0F307414FF4FA656943ED
:10039000FF2591FBF5F198B0C0F30722C6B26020AB
:1003A000CDE902014FF4FA614A4392FBF5F10223D1
:1003B00000240AAA049306940BC211904FF4FA6029
:1003C000464396FBF5F00E941594164C1393129039
:1003D0000821206801F072FD0021206801F06EFD07
:1003E0000421206801F06AFD082202A9206801F0BA
:1003F0006EFC00220AA9206801F069FC042211A900
:10040000206801F064FC0821206801F009FD00214A
:10041000206801F005FD0421206801F001FD18B0FD
:1004200070BD000040100020002402F083FB0C4D42
:100430004FF47A7600210BA2084602F033F901232B
:1004400022460221002002F02BF92046FFF79AFFF6
:10045000601920F07F44304603F071F8EAE70000AD
:10046000400D030053686F7720436F6C6F723A2022
:1004700000000000704710B54FF4806000F066F98E
:100480004FF4006000F062F9BDE810404FF4805076
:1004900000F05CB972B6FEE7084AFF20D2E901130A
:1004A000994209D00648405C491CCB1701EB5363C5
:1004B00023F07F03C91A51607047000048100020E4
:1004C00038330020F8B50024009490F82420254605
:1004D000012A12D0012280F824204A681F23072A0B
:1004E0000DD20668776B521E02EB820293409F4347
:1004F0000B6893401F43776319E00220F8BD06683C
:100500000D2A0AD2376BD21F02EB820293409F431F
:100510000B6893401F43376309E0F76A0D3A02EB1B
:10052000820293409F430B6893401F43F7620A681F
:10053000072306680A2A0AD3F7680A3A02EB42023E
:1005400093409F438B6893401F43F76008E03769EF
:1005500002EB420293409F438B6893401F433761F5
:100560000A68102A01D0112A20D1124B02689A423F
:1005700017D193681B0219D4936843F40003936066
:100580000968102912D10C490C4A0968B1FBF2F133
:1005900001EB8101490000E0491E00910029FBD1D7
:1005A00004E0816A41F020018162012480F8245036
:1005B0002046F8BD00240140B80F002040420F0043
:1005C0002DE9F0414FF0000704003D467ED0A06ABF
:1005D000002628B9E66284F82460204600F07EF800
:1005E0002046FFF7A3FEA16AC90600D420B1A06A85
:1005F00040F01000A06269E0A16A21F4885141F046
:100600000201A1626268E169237B0A4347EA430170
:100610000A43A1684FF48077B94209D0012907D075
:100620005FF0000194F814C0BCF1010F02D00AE0A1
:100630003946F7E7F3B1A36A43F02003A362E36A04
:1006400043F00103E3622368D3F804C02CF4694C3F
:100650004CEA010CC3F804C021688B68DFF870C055
:1006600003EA0C0313438B60A168B9420BD0012944
:1006700009D00CE0DFF85CC0A3690CEB43330B43FB
:1006800043F40061DFE7218A0D05A5F58015216897
:10069000CB6A23F470032B43CB62216889680E4B2D
:1006A0001940914208D1E662A16A21F0020141F0AD
:1006B0000101A162BDE8F081A06A20F0020040F0D3
:1006C0001000A062E06A40F00100E0620120F1E762
:1006D000FDF7E1FF00E0FFFFFE0E1FFF00B585B054
:1006E0000021009101910291039100680E49884216
:1006F00018D10E48816941F400718161816901F46A
:1007000000710491816941F0040181618069694649
:1007100000F0040004900820009003200190044899
:1007200000F020F805B000BD002401400010024098
:1007300000080140B0F5806F04D0B0F5805F03D1B0
:1007400002F098BC01F0DEBE70470000044910B50D
:100750000A68024202D00860FFF7ECFF10BD0000FB
:10076000140401402DE9F84FDFF8B8910024A9F1F5
:10077000040B23460F2709F1040AABF1040EC9E06C
:100780000125A5402A40AA427DD1674ED1F804C078
:10079000ACEB0608B44532D014DCBCF1030F3AD000
:1007A00009DCBCF1000F2AD0BCF1010F1CD0BCF158
:1007B000020F31D11DE0BCF1110F17D0BCF1120FA7
:1007C0002AD119E0B8F5881F19D006DCB8F5803FAA
:1007D00015D0B8F5801F1FD111E0B8F5001F0ED05D
:1007E000B8F5041F18D10AE0CB6815E0CB681B1DD3
:1007F00012E0CB6808330FE0CB680C330CE08B6859
:100800002BB1012B4FF0080303D0456104E0042312
:1008100002E0056100E00023FF2A01D8064601E05E
:1008200000F104064FEA840501D9A5F12005D6F8A8
:10083000008007FA05FC28EA0C0803FA05F548EAE7
:100840000508C6F800804D68ED0062D5374DAE69E9
:1008500046F00106AE61AD6924F0030605F001051E
:100860000095334D06EB050CDCF80850A607360F53
:1008700007FA06F825EA0805DFF8B880404503D1F5
:100880004FF0000817E044E0DFF8AC80404502D1AB
:100890004FF001080FE0DFF8A480404502D14FF08F
:1008A000020808E0DFF89880404502D14FF00308C5
:1008B00001E04FF0040808FA06F848EA0508CCF809
:1008C00008804D68D9F80060ED024D4601D5164309
:1008D00000E096432E604D68DAF80060AD025546A0
:1008E00001D5164300E096432E604D68DBF80060AA
:1008F000AD035D4601D5164300E096432E604D687A
:10090000DEF80060ED03754601D5164300E096431E
:100910002E60641C0D682A46E5407FF431AFBDE8C7
:10092000F88F000008040140000011100010024080
:100930000000014000080140000C0140001001408F
:10094000001401408068084000D0012070470AB1BF
:10095000016170470904FBE70148806870470000A7
:10096000AC0F002070B5040025D094F83D000025A0
:1009700020B984F83C50204600F0E6F9242084F8A1
:100980003D002068016821F00101016020680168D4
:1009900041F4004101602068016821F400410160D8
:1009A00000F078FC4D4A6168914201D84C4900E062
:1009B0004C49884201D2012070BD4B492368B0FBED
:1009C000F1F15E6826F03F060E435E606368934275
:1009D00006D94FF4967359434FF47A73B1FBF3F190
:1009E0002368491C1E6A26F03F063143196261687C
:1009F000914210D84900401EB0FBF1F2521CC2F3E4
:100A00000B02042A01D2042022E0B0FBF1F0401CCA
:100A1000C0F30B001CE0A268F2B301EBC10303EBCF
:100A20000116431EB3FBF6F35B1C43F480431B0526
:100A300049D092B301EBC10202EB0111401EB0FBA1
:100A4000F1F0401CC0F30B0040F4804040F4004043
:100A50002168CA694CF6FF739A431043C861D4E910
:100A6000071001432068026822F0C00211430160B0
:100A7000D4E9030101432068826848F2FF339A43B6
:100A800011438160D4E9050108432168CA6822F056
:100A9000FF021043C86001E00EE016E02068016824
:100AA00041F0010101602564202084F83D002563A8
:100AB00084F83E50002070BD01EB4106431EB3FB9D
:100AC000F6F35B1CB3E70120C2E701EB4101401ED6
:100AD000B0FBF1F0401CC0F30B00B7E7A0860100AB
:100AE00080841E0000093D0040420F002DE9F84FB0
:100AF0001F4690468A460446DDF82890FFF72CFFF3
:100B0000054694F83D0020287FD119230122404951
:100B10002046009501F066FB002876D194F83C0051
:100B2000012872D0012084F83C0020680168C907C0
:100B300003D1016841F0010101602068016821F4DE
:100B400000610160212084F83D00102084F83E00FF
:100B500000262664C4F824806785608D20852D4892
:100B6000E0622B464A465146204601F06DFA90B9A4
:100B7000206841698069009036E02A46494620464F
:100B800001F0D6FB50B1206C042804D12068016824
:100B900041F4007101600120BDE8F88F606A2168AE
:100BA00000780861606A401C6062618D491E618541
:100BB000218D491E89B2218522685369DB435B0779
:100BC0000BD451B100781061606A401C6062608D86
:100BD000401E6085208D401E20852A4649462046BD
:100BE00001F0D4FA0028CED1208D0028C5D154F8C8
:100BF0003D0B016841F400710160202004F81E09DA
:100C0000E67766770020C7E7FFE70220C4E7000029
:100C1000020010000000FFFF2DE9FF4F83B09A464D
:100C2000DDE9119793460446DDF84080FFF794FE16
:100C3000054694F83D0020287FD119230122404920
:100C40002046009501F0CEFA002876D194F83C00B9
:100C5000012872D0012084F83C0020680168C9078F
:100C600003D1016841F0010101602068016821F4AD
:100C700000610160212084F83D00402084F83E009E
:100C800000262664C4F82480A4F82A90608D20856C
:100C90002C48E062CDE9007553465A462046049937
:100CA00001F020FA70B930E02A463946204601F0BA
:100CB0003FFB58B1206C042804D12068016841F43E
:100CC00000710160012007B0BDE8F08F606A216803
:100CD00000780861606A401C6062218D491E89B2FB
:100CE0002185628D521E628522685369DB435B0752
:100CF0000BD469B100781061606A401C6062208D7D
:100D0000401E2085608D401E6085208D0028CBD13F
:100D10002A463946204601F039FA0028CAD154F84B
:100D20003D0B016841F400710160202004F81E09A8
:100D3000E67766770020C6E7FFE70220C3E70000FA
:100D4000020010000000FFFF10B586B000210091E6
:100D500001910291039100680F4988421AD10F4C0A
:100D6000A06940F00800A061A069694600F0080091
:100D70000490C020009012200190032003900848A6
:100D8000FFF7F0FCE06940F40010E061E06900F476
:100D90000010049006B010BD005400400010024046
:100DA000000C01400248816802781144816070475C
:100DB000AC0F0020074810B5016841F01001016038
:100DC000032000F0A7F80F2000F006F800F050F81C
:100DD000002010BD0020024030B505461F4887B0F6
:100DE000C16941F00401C161C06906A900F00400B5
:100DF000009001A800F02EFA0498B0B100F04AFA71
:100E000040001749174AB0FBF1F11748491E02602C
:100E1000416040F2E7320021C0E903218160816135
:100E200000F02EFD040003D015E000F033FAE8E7EF
:100E30000D4800F087FD04000DD11E2000F03CF8A5
:100E4000102D07D2002229461E2000F043F8074843
:100E5000056000E0012407B0204630BD00100240CC
:100E600040420F00000800401C1A0020B00F002074
:100E70000F4808B5816941F001018161816901F084
:100E800001010091C16941F08051C161C069002236
:100E900000F0805000900F21901E00F01BF80548D4
:100EA000416821F0E06141F00071416008BD00003F
:100EB0000010024000000140002809DB00F01F0282
:100EC000012191404009800000F1E020C0F80011AC
:100ED00070470000F0B40E4B1B680C46C3F30223AE
:100EE000C3F10705042D00D90425191D072901D2D6
:100EF000002300E0DB1E012606FA05F1491E214011
:100F000099409E40761E16403143F0BC02F0DBBA99
:100F10000CED00E0064900F0070208684FF6FF03F9
:100F2000184040EA0220034A10430860704700005E
:100F30000CED00E00000FA052DE9F04186B0040058
:100F400004D094F8A902002520B108E0012006B0E1
:100F5000BDE8F08184F8A852204600F05BF8032039
:100F600084F8A902206802F0A4FA04F11001142206
:100F700088466846FFF765F994E80F0002F08CFA9E
:100F80000227D0BB0021206802F09AFA0020012637
:100F90000EE000BF00EB800104EBC10181F8296085
:100FA00001F8280F401CCD700D614D61C0B28D61FC
:100FB00061688142EED8002012E000BF00EB8001A2
:100FC00004EBC10181F8695181F8680181F86B5126
:100FD000C1F87851C1F87C51401CC0B2C1F88051B1
:100FE00061688142EAD8142241466846FFF729F930
:100FF00094E80F0002F054FA10B184F8A972A5E742
:1010000084F8245084F8A962206802F047FA00208E
:101010009DE7000008B500680649884208D10648E7
:10102000C16941F40001C161C06900F40000009091
:1010300008BD0000005C0040001002402DE9F843AC
:1010400005460078354CC00754D0E0690026C00042
:1010500008D4E06940F08050E061E069012600F0CA
:10106000805000902E480168C90512D4016880465E
:1010700041F480710160FFF76FFC074605E000BF97
:10108000FFF76AFCC01B642823D8D8F80000C0050D
:10109000F6D5206A10F4407021D0A98801F440717F
:1010A00081421CD0206A1F49012220F440700A604E
:1010B00000220A602062C00711D0FFF74DFC0746EE
:1010C00041F2883808E000BFFFF746FCC11B4145EC
:1010D00002D90320BDE8F883206A8007F4D5206A8E
:1010E000696820F44070084320621EB1E06920F076
:1010F0008050E0612878800705D56068A96820F4F1
:101100004040084360602878C00605D56068E968FB
:1011100020F48000084360600020DBE700100240FC
:1011200000700040400442422DE9F0470F460500A0
:1011300061D0434E306800F00700B84209D23068F1
:1011400020F0070038433060306800F00700B842F4
:1011500051D128683B4C810712D5400703D5606800
:1011600040F4E06060602878000703D5606840F4D0
:10117000605060606068A96820F0F000084360601B
:101180002878C00728D06868012810D02168022874
:1011900010D0890700292EDA616821F0030101438C
:1011A0006160FFF7D9FB804641F288390DE0216884
:1011B0008903EFE78901EDE7FFF7CEFBA0EB08011C
:1011C000494502D90320BDE8F0876068696800F0EE
:1011D0000C00B0EB810FEFD1306800F00700B8428F
:1011E0000BD9306820F0070038433060306800F0D9
:1011F0000700B84201D00120E5E72878400705D56F
:101200006068E96820F4E0600843606028780007BF
:1012100006D56068296920F4605040EAC10060602A
:1012200000F058F86168084AC1F30311515CC840E6
:101230000649086006480068FFF7CEFD0020C2E7B7
:101240000020024000100240C24C0008B80F0020ED
:10125000B00F00200F2202600C4A536803F0030312
:101260004360536803F0F0038360536803F4E06362
:10127000C36052684FF4E06303EAD202026104489B
:10128000006800F00700086070470000001002408E
:10129000002002400448054900684968044AC1F337
:1012A0000221515CC8407047B80F00200010024076
:1012B000D24C00080448054900684968044AC1F353
:1012C000C221515CC8407047B80F00200010024096
:1012D000D24C00080E4A51680E4801F00C03042B52
:1012E00011D0082B0FD10C48C1F38343C903C05C54
:1012F0000AD55168084AC1F34041921E515C054A23
:101300005043B0FBF1F07047044948437047000078
:101310000010024000127A00B24C000800093D00A3
:101320002DE9F84F040070D02078C04DC00749D097
:101330006868C0F38100012807D06868C0F38100A5
:10134000022809D16868C00306D52868800339D50A
:1013500060680028E7D035E06068B0F5803F0BD0CA
:1013600010B1B0F5A02F11D0286820F4803028608B
:10137000286820F4802002E0286840F4803028604B
:10138000606890B1FFF7E8FA06460AE0286840F482
:1013900080202860F0E700BFFFF7DEFA801B64289A
:1013A00073D828688003F7D50CE0FFF7D5FA064616
:1013B00005E000BFFFF7D0FA801B6428F0D828684A
:1013C0008003F7D420789A4E80074FF001094FF040
:1013D000000839D5686810F00C0F07D06868C0F3B2
:1013E0008100022809D16868C00306D428688007F4
:1013F00014D52069012808D110E02069B0B1C6F8E1
:101400000090FFF7A9FA074605E00AE1FFF7A4FA02
:10141000C01B0228C4D828688007F7D528686169EE
:1014200020F0F80040EAC10028600DE0C6F8008016
:10143000FFF792FA074604E0FFF78EFAC01B022876
:1014400023D828688007F7D4207800072CD579485E
:10145000A169D9B1C0F80090FFF77EFA074604E011
:10146000FFF77AFAC01B02280FD8686A8007F7D501
:1014700071484FF4FA510068B0FBF1F0009000BFE2
:101480000098411E0091FAD20EE080E0C0F8008082
:10149000FFF762FA074604E0FFF75EFAC01B022876
:1014A00075D8686A8007F7D42078400760D5E86966
:1014B0000027C00008D4E86940F08050E861E8697E
:1014C000012700F0805000905C480168C90513D4E2
:1014D0000168834641F480710160FFF73DFA82465E
:1014E00006E000BFFFF738FAA0EB0A0064284ED8E8
:1014F000DBF80000C005F5D5E06801280AD008B186
:10150000052813D0286A20F001002862286A20F0FC
:10151000040002E0286A40F001002862E06841F21D
:10152000883B98B1FFF718FA82460BE0286A40F032
:1015300004002862EEE700BFFFF70EFAA0EB0A01F5
:1015400059455AD8286A8007F6D50CE0FFF704FA07
:10155000824605E0FFF700FAA0EB0A0159454CD896
:10156000286A8007F6D41FB1E86920F08050E8614E
:10157000E06988B36968C1F38101022944D0022877
:10158000C6F8608004D0FFF7E7F9044638E034E09D
:10159000FFF7E2F9074604E0FFF7DEF9C01B022877
:1015A0002BD828688001F7D4206AB0F5803F05D198
:1015B0006868A16820F4003008436860D4E9080135
:1015C0000843696821F4741108436860C6F86090A4
:1015D000FFF7C2F9044606E025E000BFFFF7BCF9BB
:1015E000001B022809D828688001F7D51BE000BF3E
:1015F000FFF7B2F9001B022802D90320BDE8F88FDB
:1016000028688001F4D40EE00128F7D06868226AC7
:1016100000F48031914204D1616A00F47010884274
:1016200001D00120EAE70020E8E7000000100240B6
:101630000000424280044242B80F00200070004087
:1016400070B5040009D0606A002540B1256165616C
:10165000A56294F8510040B10CE0012070BD6068B3
:10166000B0F5827FF4D0E561F2E784F8505020466F
:1016700000F040F8022084F851002068016821F051
:1016800040010160A088218900F4827001F40441C6
:101690000843A18901F400610843217C01F00201A3
:1016A0000843217D01F001010843218B01F4007101
:1016B0000843217F01F03801084394F8201001F01D
:1016C00080010843218D01F400510843216808601E
:1016D000A069042101EA1040216848602068C169BE
:1016E00021F40061C1616565012084F8510000208A
:1016F00070BD000030B585B00024009401940294C0
:10170000039400681449884223D11448816941F444
:1017100080518161816901F480510491816941F0B6
:101720000401816180690E4D00F004000490A02046
:101730000090022001900320039069462846FFF79D
:1017400011F84020CDE90004694628460294FFF7CD
:1017500009F805B030BD0000003001400010024023
:10176000000801407047704710B590F83C20012AEE
:1017700022D0012280F83C20CA688C6822F4407292
:1017800022434C6822F4806222430C6822F40062F7
:1017900022430C6922F4805222434C6922F4005205
:1017A0002243C969002322F480420A4301684A6443
:1017B00080F83C30002010BD022010BD70B590F8BC
:1017C0003C20012A26D0012480F83C40022280F8E7
:1017D0003D2003685A689D6822F070060A6832430B
:1017E0005A600D4B02689A4208D0B2F1804F05D082
:1017F0000A4B9A4202D00A4B9A4204D1496825F01A
:1018000080031943916080F83D40002180F83C102E
:10181000084670BD022070BD002C0140000400404D
:101820000008004010B50446022084F83D002068FE
:10183000016A41F21112114207D1016A921011425C
:1018400003D1016821F001010160204600F046F853
:10185000002084F8460084F83E0084F83F0084F8B5
:10186000400084F8410084F8420084F8430084F882
:10187000440084F8450084F83D0084F83C0010BD25
:1018800010B5040003D094F83D0010B107E001202A
:1018900010BD002084F83C00204600F035F80220FE
:1018A00084F83D00211D206801F07EFC012084F8B1
:1018B000460084F83E0084F83F0084F8400084F835
:1018C000410084F8420084F8430084F8440084F81E
:1018D000450084F83D00002010BD0000084A016862
:1018E0000848914204D1816921F400618161704707
:1018F000B1F1804FFBD1C16921F00101C161704795
:10190000002C01400010024008B50C4A01680C4848
:10191000914207D1816941F400618161806900F4DD
:10192000006009E0B1F1804F07D1C16941F00101C8
:10193000C161C06900F00100009008BD002C0140A9
:101940000010024090F83D10012901D0012070479D
:10195000022180F83D100168CA6842F00102CA60A5
:1019600000680B49884208D0B0F1804F05D0094982
:10197000884202D00849884204D1816801F00701F9
:10198000062903D0016841F0010101600020704781
:10199000002C0140000400400008004070B50446DF
:1019A00090F83C000025012817D0012684F83C60FF
:1019B000022084F83D002068826822F0770222F439
:1019C0007F4282600868502838D00DDC20284FD034
:1019D00005DC90B3102811D14AE0022070BD3028F8
:1019E00046D040280AD13BE060282FD070280DD087
:1019F000B0F5805F03D0B0F5005F12D0012584F808
:101A00003D60002084F83C00284670BDCB68D1E9D9
:101A10000121206801F00BFC2068816841F077010A
:101A200009E0CB68D1E90121206801F000FC2068C1
:101A3000816841F480418160E1E719E0CA68496842
:101A4000206801F0A9FC5021206806E0CA684968B6
:101A5000206801F0B2FC6021206801F0F2FBCEE7C3
:101A6000CA684968206801F097FC40212068F4E7C3
:101A7000226801461046F0E7704770B504460068DA
:101A800001694FF00005C943890715D4C168C943EE
:101A9000890711D4E91E016101202077206880693F
:101AA0008007204602D0FFF7E7FF04E000F00EF9C0
:101AB000204600F0B3F9257720680169C94349073A
:101AC00017D4C168C943490713D46FF004010161F9
:101AD000022020772068806910F4407F204602D0E1
:101AE000FFF7CAFF04E000F0F1F8204600F096F995
:101AF000257720680169C943090716D4C168C9431D
:101B0000090712D46FF008010161042020772068D2
:101B1000C0698007204602D0FFF7AEFF04E000F066
:101B2000D5F8204600F07AF9257720680169C94385
:101B3000C90617D4C168C943C90613D46FF0100190
:101B40000161082020772068C06910F4407F20469A
:101B500002D0FFF791FF04E000F0B8F8204600F053
:101B60005DF9257720680169C943C90708D1C168B3
:101B7000C943C90704D1891E0161204600F0D6F986
:101B800020680169C943090609D4C168C943090627
:101B900005D46FF0800101612046FFF7E3FD206866
:101BA0000169C943490609D4C168C943490605D436
:101BB0006FF040010161204600F0C2F92068016920
:101BC000C94389060BD4C168C943890607D46FF09D
:101BD000200101612046BDE87040FFF7C4BD70BD23
:101BE00070B586B0002100910191029103910068C7
:101BF000304B31490224314A984211D1886940F072
:101C0000040088618869039400F00400049088153A
:101C1000CDE9000469461046FEF7A4FD06B070BD8C
:101C2000274E284DB0F1804F1BD0274A9042F5D166
:101C3000886940F0080088618869694600F00800FA
:101C400004901020CDE9000430460394FEF78AFD8D
:101C5000686820F4406040F0E06040F40060686034
:101C6000DCE7886940F004008861886900F00400BE
:101C70000490886940F0080088618869694600F02E
:101C80000800049048F20400CDE9000410460394D3
:101C9000FEF768FD0820CDE900046946304603944C
:101CA000FEF760FD686820F4407040F0E06040F4AA
:101CB0008070D4E7002C0140001002400008014071
:101CC000000C01400000014000040040704770B566
:101CD000044690F83C0000260D4601280FD0012054
:101CE00084F83C006AB1042A1DD0082A2FD00C2A9F
:101CF0003FD00126002084F83C00304670BD022011
:101D000070BD206801F0A6FA2068816941F00801E1
:101D100081612068816921F0040181612068816905
:101D20002A69114311E0206801F0BCFA206881693A
:101D300041F4006181612068816921F480618161E1
:101D4000206881692A6941EA02218161D2E720681D
:101D500001F0D4FA2068C16941F00801C16120682E
:101D6000C16921F00401C1612068C1692A69114378
:101D700011E0206801F0EEFA2068C16941F40061C9
:101D8000C1612068C16921F48061C1612068C169B5
:101D90002A6941EA0221C161ACE710B5040003D011
:101DA00094F83D0010B107E0012010BD002084F838
:101DB0003C00204600F01EF8022084F83D00211D62
:101DC000206801F0F1F9012084F8460084F83E0013
:101DD00084F83F0084F8400084F8410084F8420011
:101DE00084F8430084F8440084F8450084F83D00FA
:101DF000002010BD08B500680649884208D1064891
:101E0000C16941F00201C161C06900F002000090A7
:101E100008BD0000000400400010024070470000B0
:101E200010B50446022249B104290ED0082913D066
:101E300094F84100012816D0012010BD94F83E000E
:101E40000128F9D184F83E200FE094F83F000128E2
:101E5000F2D184F83F2008E094F840000128EBD14B
:101E600084F8402001E084F841200122206801F03C
:101E7000D1F90F492068884203D1426C42F40042F4
:101E800042642068884208D0B0F1804F05D00949EB
:101E9000884202D00849884204D1816801F00701D4
:101EA000062903D0016841F001010160002010BD46
:101EB000002C0140000400400008004030B50446FA
:101EC0000D460068002201F0A5F9174B41F21111EF
:101ED00020688A10984209D1036A0B4206D1036A2E
:101EE000134203D1436C23F4004343642068036A24
:101EF0000B4206D1016A114203D1016821F00101B0
:101F0000016001203DB1042D08D0082D09D084F8CE
:101F10004100002030BD84F83E00FAE784F83F001D
:101F2000F7E784F84000F4E7002C0140006803491B
:101F3000884201D1FEF736BF70470000000800401C
:101F4000704770B5040004D094F84100002510B12A
:101F500006E0012070BD84F84050204600F024F8CF
:101F6000242084F841002068C16821F40051C16038
:101F7000204601F035FA2068016921F490410161A1
:101F80002068416921F02A0141612068C16841F45B
:101F90000051C1606564202084F8410084F842004B
:101FA0006563002070BD000030B585B0002400944A
:101FB00001940294039400681449884224D114487F
:101FC000816941F480418161816901F4804104911A
:101FD000816941F00401816180690E4D00F00400C7
:101FE00004904FF4007000900220019003200390B1
:101FF00069462846FEF7B6FB2815CDE90004694678
:1020000028460294FEF7AEFB05B030BD0038014013
:102010000010024000080140FEE701684A69D2430F
:1020200052050FD46FF480624A61002140F8301FDE
:10203000202242738173026942F00402026101733B
:102040000120704700207047F8B50446C06A1E465C
:102050000D461746082807D0012805D010F5803F07
:1020600002D0206B122804D12068016841F48071ED
:102070000160134600224FF001112046009600F047
:10208000B1F840B120680068C00502D54FF4007077
:1020900020640320F8BD2069B0F5804F0ED00620E3
:1020A000216800EAD51040F0F000086133463A4656
:1020B0000B49204600F0DEF878B902E005F0FE009A
:1020C00000E0E8B221680861054933463A46891FB5
:1020D000204600F0CFF80028DCD00120F8BD000039
:1020E000080001002DE9F843044600680D46DDE9CB
:1020F000089701689846164641F4807101604B4686
:1021000000224FF001112046009700F06BF848B113
:1021100020680068C00502D54FF4007020640320D9
:10212000BDE8F883216805F0FE0008613B464A4699
:102130001549204600F09EF888B9206841698069F9
:1021400000903A464946204600F0F2F848B1206C2B
:10215000042804D12068016841F400710160012065
:10216000DEE7F5B2B8F1010F09D02168300A086145
:102170003A464946204600F0DBF80028E7D12068BF
:1021800005610020CCE700000200010070B5164692
:102190000D4604461EE02046FFF73FFF08B1012030
:1021A00070BD681C16D0FEF7D7FB801BA84200D874
:1021B00085B920684069C04340070BD5002044F82A
:1021C000300F20216173A073216941F0200121614A
:1021D0002073E4E720684069C0434007DBD4002057
:1021E00070BD00002DE9F047984617460D4604469D
:1021F000C1F30746DDF820902AE000BFB8F1FF3FA9
:1022000026D0FEF7A9FBA0EB0901414502D8B8F1A1
:10221000000F1DD12068012E16D0806925EA00002C
:102220000004000C12D00020B84211D1002044F864
:10223000300F20216173A073216941F020012161D9
:1022400020730120BDE8F0874069E7E70120EBE754
:102250002068012E0AD0806925EA00000004000CE5
:1022600006D00020B842C9D00020EBE74069F3E770
:102270000120F7E72DE9F047984616460D4604463B
:102280004FF000094FF0200AC1F3074723E0206810
:102290004069C043400515D42068016841F40071CD
:1022A000016021686FF480604861C4F8309084F860
:1022B0003DA084F83E90216C41F00401216484F833
:1022C0003C9021E0701C06D0FEF746FBA0EB080016
:1022D000B04203D816B1012F1FD021E02068012F92
:1022E00015D0806925EA00000004000C18D000BF5A
:1022F00044F8309F84F80DA084F80E90216941F0D5
:102300002001216184F80C900120BDE8F08740692C
:1023100025EA00000004000CEAD12068406901E0D1
:102320002068806925EA00000004000CAFD1ECE7CA
:1023300070B516460D4604461EE02046FFF76DFEBA
:1023400008B1012070BD681C16D0FEF705FB801B8C
:10235000A84200D885B920684069C04300060BD563
:10236000002044F8300F20216173A073216941F0EF
:10237000200121612073E4E720684069C043000622
:10238000DBD4002070BD000010B59CB004461822BC
:102390000BA115A8FDF755FF54220F496846FDF71C
:1023A00050FF002115A8425CA24203D15DF8210034
:1023B0001CB010BD491C1529F5D308A0F8E7000092
:1023C000A2E22202C2E0A8906898B030187A1038D1
:1023D0005A424A5200000000DC5400084572726FF5
:1023E000720000002DE9F84FDFF8FC90002248460B
:1023F000DFF8F8C0D0E90261D9E900400B46341B90
:1024000061EB0001501EB4EB0C0C1546174671F140
:10241000000C5ED3DFF8D8804FF0000CB8EB04045A
:102420007CEB010C55D34C46D4E904C1BCEB060649
:1024300061EB03012F4BF31A71F1000349D3DFF86D
:10244000B8C00023BCEB06068B4142D300234FF0FB
:102450000309EA4609EB430808F1010C04EBCC013F
:1024600004EBC80CD1E90061DCE9008CB6EB08068E
:1024700061EB0C015206DFF88480120E6D1C4FF0E8
:10248000000CB8EB06067CEB010C01D242F0010215
:10249000082D04D10AF80720002215467F1C5B1C7A
:1024A000202BD7DB9DF80110C943CBB28DF801304A
:1024B0009DF80310C943CAB28DF803209DF800109F
:1024C000994203D19DF80230934204D00C4A002176
:1024D0001160BDE8F88F084600F0B6FD9DF80200D7
:1024E00000F0B2FD0020F4E7B833002000127A00BB
:1024F00080969800E0673500C03B470340420F00DC
:10250000481000202DE9F04101F0D4FC254C264F65
:10251000D4E90423861A61EB030200231D46BE1B87
:10252000934100D22560C4E90401204A236802EBEC
:10253000C3065B1CC6E900012360042B06D0442BB4
:1025400002D1FFF74FFF2560BDE8F081D2E90260BC
:10255000D2E900370146F31A60EB0700144FDF1B86
:1025600070F10007F0D3DFF84CC00027BCEB030389
:102570008741E9D3D2E90402801B62EB01020E49D4
:10258000411A72F10001DFD34FEAAC030021181A9F
:102590009141D9D3002000F057FD002000F054FDF8
:1025A000D1E700004810002000E1F505B833002015
:1025B00000127A008096980080841E0070B505464F
:1025C00008480C46D0E90110814202D14FF0FF309B
:1025D00070BDFDF761FF2870FDF75EFF20700020E1
:1025E00070BD0000481000201CB500211AA208464A
:1025F00000F058F81CA20221002000F053F86946B0
:1026000001A8FFF7DBFF0028EFD11BA2042100F097
:1026100049F801239DF804200421002000F040F82F
:1026200001239DF800200421082000F039F812A2AF
:102630000621002000F036F814A20621002000F048
:1026400031F804469DF80000FFF79EFE0246E0B216
:10265000062100F027F8C8E74952205265636569F2
:102660007665723A20000000446576696365202033
:1026700044617461000000002020202020202020E0
:102680002020202020202020000000004B65792001
:102690006E616D653A20000000F01EBB00F032BB99
:1026A00000F07ABB00F0BABB10B506484FF40053F7
:1026B00009B1002200E001221946FEF748F9002086
:1026C00010BD00000010014070B586B00024114814
:1026D0000094019402940394816941F01001816196
:1026E00080690D4E00F010004FF400550490224612
:1026F00029463046FEF72BF901200095CDE901046B
:102700000220039069463046FEF72CF806B0002000
:1027100070BD00000010024000100140FFF7D4FF20
:102720004FF4FA7401210846FFF7BEFF204600F07F
:1027300006FF00210120FFF7B7FF204600F0FFFE53
:10274000F0E700002DE9F04711484FF4247601240A
:1027500085888046A0F1300904EB440108EB41076D
:1027600038F81120788802EB420309EB430232214A
:1027700032F8100000F01EFCB888B5FBF0F000F055
:10278000DEFE641CA4B2B442E6D9BDE8F0870000C6
:10279000440000203EB500241148009401940294A6
:1027A0000E498460016004730475012505614FF4CE
:1027B00060214460C161FDF703FF08B1FDF76AFEC7
:1027C0000320CDE90005694602940548FDF77AFE2D
:1027D000002801D0FDF75EFE3EBD00000024014050
:1027E000301500203EB5174A0021174800F0F0FED2
:1027F000164C0023214620612020CDE900018022D3
:1028000013A1164802F034F8606015481825A0F5A9
:1028100000710095CDE901100023802211A1144818
:1028200002F053F8A06013480095A0F50071CDE9BF
:1028300001100023802210A1134802F046F8E06046
:102840003EBD00008C4C0008E13000080000002074
:10285000506C61794D757369630000003D3000086C
:10286000781200204C65645F5465737400000000AA
:102870001D270008D4140020436F6C6F724C454430
:102880005F54657374000000290400082DE9F047C7
:1028900086B000244B48009401940294039481690B
:1028A00041F010018161816901F010010491816999
:1028B00041F020018161816901F020010491816969
:1028C00041F004018161816901F004010491816991
:1028D00041F00801816180693B4F00F008004FF42E
:1028E00000550490002229463846FEF730F8DFF8FC
:1028F000DC90002213214846FEF729F8DFF8D0A02B
:102900004FF40248002241465046FEF720F8009559
:10291000022601250396CDE9015469463846FDF7A4
:1029200021FF112700970396CDE9015469464846D7
:10293000FDF718FFCDE90256CDE900676946484624
:10294000FDF710FF03208DE8310069465046FDF782
:1029500009FFA80200901F48CDE9010569465046CD
:10296000FDF700FF1C4F4FF40260CDE900076946F8
:1029700002955046FDF7F6FE2803CDE900076946AB
:1029800002945046FDF7EEFE4FF48240CDE900047C
:10299000694650460294FDF7E5FECDF800800396A7
:1029A000CDE9015469465046FDF7DCFE00220521C1
:1029B0002820FEF78FFA2820FEF77EFA06B0BDE841
:1029C000F0870000001002400010014000080140A4
:1029D000000C014000003110000011100D4810B52E
:1029E0000B4901600C49416000214FF48042816035
:1029F000C0E9031241618161C1610162FDF7B2FF6B
:102A0000002803D0BDE81040FDF744BD10BD000014
:102A10000054004060150020A0860100104810B549
:102A20000E4901604FF48271416000218160C160F4
:102A30004FF400720161C0E905120822C0E90721C4
:102A4000416281620A21C162FEF7FAFD002803D0CB
:102A5000BDE81040FDF71EBD10BD00000030014074
:102A6000B415002010B596B000240F941094119462
:102A7000129413941C2108A81494FDF7FBFB202149
:102A80006846FDF7F7FB2A48284901604721C0E95D
:102A9000011440F2E731C0E903148021C0E9054187
:102AA000FEF7EEFE08B1FDF7F5FC4FF480500F90F5
:102AB0000FA91F48FEF772FF08B1FDF7EBFC1C4899
:102AC000FFF76BF908B1FDF7E5FC139413A918485B
:102AD0001494FEF773FE08B1FDF7DCFC602008904B
:102AE00040F2F310CDE909040B940C940D940022EC
:102AF00008A90F480E94FFF7EAF808B1FDF7CAFCE1
:102B000000944FF40050CDE90440029401940394E2
:102B1000694607480794FEF727FE08B1FDF7BAFC9F
:102B20000348FFF75DF816B010BD0000002C01400F
:102B30000C16002010B58EB0002407940894099458
:102B40000A940B941C2168460C94FDF793FB2748CC
:102B50004FF08041016040F26711C0E9011440F27A
:102B6000CF71C0E9031480218161FEF789FE08B1AD
:102B7000FDF790FC4FF48050079007A91B48FEF723
:102B80000DFF08B1FDF786FC1848FFF706F908B1FC
:102B9000FDF780FC0B940BA914480C94FEF70EFE75
:102BA00008B1FDF777FC6020CDE900040294002213
:102BB00069460E480494FFF78AF808B1FDF76AFCED
:102BC000042269460948FFF782F808B1FDF762FC64
:102BD000082269460548FFF77AF808B1FDF75AFC64
:102BE0000248FEF7FDFF0EB010BD00005416002095
:102BF00010B58AB0002407941C2168460894FDF79C
:102C000039FB1848164901600721C0E9011440F258
:102C1000E731C0E9031480218161FFF7BEF808B1F4
:102C2000FDF738FC079407A90E480894FEF7C6FD87
:102C300008B1FDF72FFC602000904FF46170CDE9E2
:102C400001040022694607480494FFF740F808B1E0
:102C5000FDF720FC0348FEF7C3FF0AB010BD0000DB
:102C6000000400409C1600200C4810B50A49016081
:102C70004FF4E1314160002181600C22C160C0E964
:102C800004128161C161FFF75CF9002803D0BDE83F
:102C90001040FDF7FFBB10BD00380140E4160020D6
:102CA0000B4810B50949016008214160022181608B
:102CB00000218161C1610162FEF73EF9002803D065
:102CC000BDE81040FDF7E6BB10BD0000005C004011
:102CD0002C170020FEE7FEE710B5A0B000248021ED
:102CE0006846FDF7C7FA0021204600F0EBF8802186
:102CF000684600F01BF9641CE4B2082CF3D320B042
:102D000010BD000010B50224202000F0FBF8204682
:102D100000F0F8F81F4804703F24A82000F0F2F8F3
:102D2000204600F0EFF80024D32000F0EBF8204616
:102D300000F0E8F8402000F0E5F8A12000F0E2F80B
:102D4000C82000F0DFF80021084600F0A5F87F2435
:102D5000812000F0D7F8204600F0D4F8A42000F03D
:102D6000D1F8A62000F0CEF8D52000F0CBF88020D6
:102D700000F0C8F88D2000F0C5F8142000F0C2F86B
:102D80000021012000F088F8BDE81040AF2000F0DD
:102D9000B9B8000034100020F0B51CA6154607464F
:102DA00055CE87B00DF10C0C8CE8550030208DF815
:102DB0000000782000268DF8010002248DF80A60BA
:102DC00007206A464FEA800E25FA0EFE0EF00F0E1F
:102DD000022C1CF80EE002F804E004D19DF802E099
:102DE000BEF1300F00D0641C401EEBD5022C00D188
:102DF00003243846165523B100F010F8204607B0DA
:102E0000F0BD921C00F00AF8A01EF8E73031323312
:102E10003435363738396162636465662DE9F041CF
:102E200017460E46044600250BE03146204600F0CA
:102E30000FF8641CE4B20F2C02D90024B61CF6B2C1
:102E40006D1C7A5D002AF0D12846BDE8F0810000B3
:102E500070B51646C206150E0C46072918D80F285D
:102E600016D82946204600F02DF80A48082100EB24
:102E70000610064600F05AF8641CE0B2294600F03D
:102E800021F806F10800BDE87040082100F04EB8B6
:102E900070BD0000DA4C000870B50C46050001D08A
:102EA000012D0ED10CB1012C0BD1DA2000F02AF843
:102EB000280100EB4410BDE87040801CC0B200F057
:102EC00021B870BD70B50E4D0C462978022905D188
:102ED000072803D8B030C0B200F014F828780228D0
:102EE0000CD17F2C0AD804F00F0000F00BF8102052
:102EF00000EB1410BDE8704000F004B870BD000095
:102F0000341000201CB500218DF804108DF8050048
:102F10004FF4FA7000900448022301AA7821406817
:102F2000FDF7E4FD1CBD0000341000200EB54FF489
:102F3000FA728DE807000448012340227821406896
:102F4000FDF76AFE0EBD00003410002070B58CB095
:102F50001C216846FDF78EF94FF480700225CDE9FB
:102F60000705002407A91048CDE90945FDF7FAFB3C
:102F70000F4E0E484722316815C140F2E732E1E8B2
:102F80000224802261E8044200F00EF960200090E3
:102F9000049440F2F310CDE901050022694630683F
:102FA000FEF795FE0CB070BD00080140002C0140FA
:102FB0003C1000202DE9F04188B0884606461C21CF
:102FC0006846FDF757F91A4C00212068FEF776FF96
:102FD0002068FEF727FC206816490025016047217C
:102FE000C0E90115144F97FBF6F1491EC0E903151E
:102FF0008021C0E90551FEF743FC602000900220CB
:10300000029097FBF6F0401E00FB08F0642190FB55
:10301000F1F004950190002269462068FEF757FE02
:1030200000212068FEF7FCFE08B0BDE8F08100003A
:103030003C100020002C014040420F00FFF786FFAB
:10304000FFF780FBFCE70000084B10B599680A46C3
:10305000491CCC1701EB546424F07F04091B5C6805
:10306000A14202D0024CA054996010BD481000202B
:10307000383300202DE9F04100F01CFF06460D46D4
:10308000022000F05CFA134F4FF480513846FDF7F0
:1030900059FC002816D0104CD4E90401321A65EB13
:1030A00001030E480021FDF78BF8606001213846CE
:1030B000FDF748FC0028206806D0401CC4F800003A
:1030C000C4E90465BDE8F081401E206060684042AC
:1030D0006060F5E7000C01406010002000CA9A3BD8
:1030E000FFF7DCFAFFF7D8FAFFF77EFAFCE70000FB
:1030F00010B5502080F31188BFF34F8FBFF36F8F4F
:1031000001F022FC18B104494FF080500860002003
:1031100080F3118810BD000004ED00E030B593B0DD
:1031200028216846FDF7A6F814210AA8FDF7A2F8A1
:10313000002401200F9410941194010412948DE83E
:10314000130004904FF4E010CDE908100225079514
:103150006846FEF7E5F808B172B6FEE70F20CDE944
:103160000A054FF48060CDE90C4002210AA80E94B4
:10317000FDF7DAFF08B172B6FEE712200F904FF4A8
:103180000040CDE911040FA8FDF758FF002801D039
:1031900072B6FEE713B030BD704700000148FEF77D
:1031A0006CBC00001C1A0020F0B50268164B174CCE
:1031B000174D4FF08047984205D0B84203D0A04247
:1031C00001D0A84203D122F070064A6832439842E7
:1031D00005D0B84203D0A04201D0A84203D122F4C6
:1031E0004074CA6822434C6922F080022243026084
:1031F0008A68C2620A688262984201D109690163E1
:1032000001214161F0BD0000002C0140000400409C
:103210000008004010B501F01F030121046A994025
:103220008C430462016A9A401143016210BD10B5DB
:10323000846842EA032224F47F440A4322438260E2
:1032400010BD826822F070020A4342F007018160DB
:103250007047000030B5036A026A22F00102026280
:103260004268846924F073050C682C4323F002053E
:103270008B682B430A4DA8420BD123F00805CB687D
:1032800022F440722B434D6923F0040315438A69ED
:103290002A434260846149684163036230BD000093
:1032A000002C014030B5026A036A23F01003036268
:1032B000436884690D6824F4E64444EA05248D6873
:1032C00022F0200242EA05120B4DA8420ED1CD6831
:1032D00022F0800242EA05124D6923F4406343EA7A
:1032E00085038D6922F0400243EA850343608461CF
:1032F00049688163026230BD002C014030B5036A29
:10330000026A22F4807202624268C46923F4007384
:1033100024F073050C682C438D6843EA05230C4D9B
:10332000A8420ED1CD6823F4006343EA05234D691A
:1033300022F4405242EA05128D6923F4806342EA86
:1033400005124260C4614968C163036230BD000078
:10335000002C014030B5046A026A22F480520262F5
:103360004268C3690D6823F4E64343EA05238D6888
:1033700024F4005444EA0534064DA84204D14D69B2
:1033800022F4804242EA85124260C36149680164C6
:10339000046230BD002C014010B5036A046A24F0B9
:1033A00001040462846924F0F00444EA021423F066
:1033B0000A020A438461026210BD10B5036A046AFE
:1033C00024F010040462846923F0A00324F4704400
:1033D00044EA023243EA01118261016210BD000039
:1033E00070B5044600680169E26821F44051114358
:1033F00001612169A0680843616908432168CA68BE
:1034000041F20C639A430243CA6020684169A26991
:1034100021F44071114341611E492068884202D164
:10342000FDF748FF01E0FDF735FF00EBC00101EBC0
:103430000012606864218000B2FBF0F3B3FBF1F38B
:103440006FF018067343B2FBF0F5B2FBF0F605EB34
:103450008305322303EB0515B5FBF1F5B6FBF1F659
:1034600005F0F00505EB0615B2FBF0F6B2FBF0F047
:10347000B0FBF1F06FF01802504306EB800003EB55
:103480000010B0FBF1F0216800F00F0028448860C4
:1034900070BD0000003801400020704700207047D8
:1034A000012120F8401F002101808180018208460F
:1034B000704730F8401F21F43F41018000207047E1
:1034C00000207047FEE70907090E002804DB00F121
:1034D000E02080F80014704700F00F0000F1E020B9
:1034E00080F8141D704702E008C8121F08C1002AA6
:1034F000FAD170477047002001E001C1121F002A75
:10350000FBD17047FDF756FCFFF708FEFFF7BEF949
:10351000FFF764FAFFF73EF9FFF780FAFFF7C0FB09
:10352000FFF7A0FAFFF706FBFFF762FBFFF79CFB34
:1035300000F012F8FFF756F900F02AF8FEE770B530
:10354000054600244FF47A7603E0304600F0D4FCC0
:10355000641CAC42F9DB70BDEFF3058058B9EFF3A2
:10356000108040B909490868022801D030B109E04B
:10357000EFF3118030B16FF0050070470120086053
:10358000002070474FF0FF30704700000C10002003
:1035900010B5EFF3058060B9EFF3108048B90B491F
:1035A0000868022802D0012806D00BE0EFF3118052
:1035B00040B16FF0050010BD0220086000F02AFE47
:1035C000002010BD4FF0FF3010BD00000C10002097
:1035D000F0B585B04FEA01034FF00004EFF3058129
:1035E0000394A1BBEFF3108189BB2149096802292B
:1035F00002D1EFF3118151BB48B3802618218DF819
:10360000104004AD42B3176807B13D4697691FB13A
:1036100039467F1E382F02D21779FF0702D00020CB
:1036200005B0F0BD576907B1BE08D2F808C0BCF1BB
:10363000000F0DD0D4685C2C18D312693AB137B1A1
:103640008DE806103246294601F03FF903900DE05F
:10365000D7685FB912694AB903AACDE90012B2B2BC
:10366000294601F005F9012800D003940398D7E713
:103670000C1000202DE9F041134C0F4605466669F9
:103680002068001D00F054FC681C07D137B1216888
:10369000BDE8F0410D48091D00F09ABC2068354492
:1036A000B5424560216805D2A068BDE8F041091D1A
:1036B00000F076BC6068091D00F072FC206B85424A
:1036C00000D22563BDE8F081BC0F0020541F00200C
:1036D0002DE9F041054600F087FC2D4C2069401C87
:1036E000206120682B4F10B1E06930B32BE02560DA
:1036F0002069012827D1002606EB860007EB800011
:1037000000F040FC761C382EF6D3234800F03AFC3B
:103710002148143000F036FC1F48283000F032FCFD
:103720001D483C3000F02EFC1B48503000F02AFCB5
:10373000194860601430A06005E02068E96AC06A3A
:10374000884200D82560E06A401CE0626864E86A4C
:10375000A169884200D9A06100EB800007EB8000DE
:10376000291D00F035FC00F05FFCE06900280CD05A
:103770002068E96AC06A884207D208494FF0805041
:103780000860BFF34F8FBFF36F8FBDE8F08100007B
:10379000BC0F0020A41A0020041F002004ED00E04C
:1037A00038B500F021FC104CA068C8B90F4800F0F3
:1037B000E9FB0E48143000F0E5FB0C4820601430A3
:1037C00060600A4B00202833009003F15002102162
:1037D0000A2000F0F1FDA06010B105A100F0A2FCEC
:1037E000BDE8384000F020BCF80F0020681F002022
:1037F000546D72510000000030B4026C0B46002A78
:103800000BD0C1681144C1604468A14201D3016872
:10381000C16030BC1846FCF714BD30BC70472DE9C0
:10382000F041856B174604460026026C82B1C7B191
:10383000E068FCF706FDE168206C091AE160226887
:10384000914202D26168081AE060022F16D017E098
:103850002068A8B9606801F0DBF8064600206060C7
:103860000EE0A068FCF7EDFC216CA0680844A060A5
:103870006168884204D32068A06001E005B16D1E34
:103880006D1CA5633046BDE8F08110B5044690F884
:10389000590058B101280CD002280FD0502080F3D5
:1038A0001188BFF34F8FBFF36F8FFEE7206B00F0DF
:1038B000CFFB2046BDE8104000F0CABB10BD0000A1
:1038C00010484FF44061420706D0C01D0D4920F05A
:1038D0000700411AC1F540610B4A00230144C2E9C7
:1038E00000030839103A21F0070111604B600B60AA
:1038F0000B1AC0E9001393604FF000405360D06092
:10390000704700003827002020100020144E154C6E
:10391000A6F29C474FF08058DFF84C9012E000BFB1
:1039200000F062FBF068C568281D00F001FB20690B
:10393000401E2061E068401EE06000F075FB2846F4
:10394000FFF7A3FFE0680028EAD138680128F9D919
:10395000C9F80080BFF34F8FBFF36F8FF2E700000D
:10396000401F0020BC0F002004ED00E070B51D4694
:10397000049C51B1C4F80020C4E90F010121204684
:1039800000F04EFD84F84C5070BD2460F4E72DE942
:10399000F0470E46DDE909841746824691009946B4
:1039A000089DA522206BFCF75EFC6FF00301206BE5
:1039B00001EB8701084420F00707780707D0502063
:1039C00080F31188BFF34F8FBFF36F8FFEE722188C
:1039D000315C82F83410315C11B1401C1028F6D3F0
:1039E000002684F84360382D00D33725E562C4E90A
:1039F0001356201D00F0D1FA04F1180000F0CDFAA2
:103A00002461C5F138006462A061666584F858607D
:103A10004A465146384600F03BFA2060B8F1000FA4
:103A200001D0C8F80040BDE8F087000030B511496A
:103A300000E011460A688242FBD34B685C1884425E
:103A400003D1406818444860084643681C189442F3
:103A500009D1084C103C2468A24209D052681A448B
:103A600042600A6812680260814200D0086030BD7E
:103A70000460F9E72010002070B5002441600B4D70
:103A80000061914206D8D11A8269914206D2011D85
:103A9000686807E09A4203D2994201D3012403E007
:103AA000011D286800F07CFA204670BDF80F002048
:103AB00010B5044600F098FAA06B28B15FF000043E
:103AC00000F0B2FA204610BD0124F9E730B589B004
:103AD000304D55E00498002806DADDE90601059A24
:103AE0009047049800284BDB069C606910B1201DAC
:103AF00000F01EFA02A800F0B9F8024604980A285D
:103B00003ED2DFE800F00505053D263705053D26D8
:103B10000598A169034601442046FFF7ADFF00B3B5
:103B2000616A20468847E069012829D10020009079
:103B30000598A169002342181946204601F072F841
:103B400078B9502080F31188BFF34F8FBFF36F8F88
:103B5000FEE70598A06128B1811813462046FFF7BB
:103B60008BFF0DE0502080F31188BFF34F8FBFF320
:103B70006F8FFEE794F82C0010B9204600F068FA29
:103B8000002204A9A86800F09DFD0028A2D109B078
:103B900030BD0000F80F00202DE9FC410F4605461E
:103BA00000F07CFB01A800F061F80446019818B110
:103BB00000F0A6FFBDE8FC81224EAFB1706800683E
:103BC000A8B30027291B3A46B06800F0BFFA00F0FE
:103BD00097FF0028EED11C494FF080500860BFF3DA
:103BE0004F8FBFF36F8FE5E7A542EBD800F088FF5A
:103BF00030682746C068C468201D00F099F9E06964
:103C0000012810D1A0692B4641193A462046FFF7FA
:103C100033FF40B100200346014600902A4620466B
:103C200001F000F820B1616A20468847C2E707E04A
:103C3000502080F31188BFF34F8FBFF36F8FFEE7E3
:103C40000127BFE7F80F002004ED00E006484168B7
:103C5000096829B14168C968C96849680163704742
:103C60004FF0FF31FAE70000BC0F002070B50546A9
:103C700000F064FE064E04463069844203D200F030
:103C800009F8012000E0002028602046346170BD62
:103C9000F80F0020F8B5194D1FE0C068C468066829
:103CA000201D00F045F9616A20468847E069012837
:103CB00013D1A0693044B04206D924616060211D4F
:103CC000286800F06DF908E00020034601460090E6
:103CD0003246204600F0A6FF38B128680168002966
:103CE000DBD16968C5E90010F8BD502080F3118868
:103CF000BFF34F8FBFF36F8FFEE70000F80F002078
:103D000008484068401C4FF0500080F3118804D0F0
:103D1000BFF34F8FBFF36F8FFEE7BFF34F8FBFF33C
:103D20006F8FFEE728100020074C2068016841B122
:103D3000C0680021D0F80000FFF72EFFFFF7C6FE95
:103D4000F3E701210020F7E7F80F00202DE9F0410B
:103D5000044600F049F994F9455004F1240609E0BD
:103D6000606A48B1304600F093FE08B100F018FADE
:103D70006D1E6DB2002DF3DC4FF0FF3684F8456008
:103D800000F052F900F030F994F9445004F11007B2
:103D900009E0206948B1384600F07AFE08B100F029
:103DA000FFF96D1E6DB2002DF3DC84F84460BDE8B0
:103DB000F04100F039B900002DE9F0410546002737
:103DC00000F06CFA314E306808B9FFF779FDF06801
:103DD00005424BD1C5B3083568070ED005F0070082
:103DE000C0F108000544680707D0502080F311880F
:103DF000BFF34F8FBFF36F8FFEE72DB3706885421F
:103E000034D82248103001460C6801E020460C46A8
:103E10006168A94202D221680029F7D131688C4239
:103E200024D007682168016060680837411B1029A9
:103E30000FD96019420708D0502080F31188BFF3D2
:103E40004F8FBFF36F8FFEE710E041606560FFF7B3
:103E5000EDFD61687068401A7060B268904200D2EF
:103E6000B060F06801430020C4E9000100F048FEA2
:103E7000780707D0502080F31188BFF34F8FBFF32E
:103E80006F8FFEE73846BDE8F0810000101000207B
:103E900010B5031F4FF080741C601B1F21F001013F
:103EA0001960191F024B0B60143940380A6010BDAD
:103EB000013D00082DE9F0410D4CFCF74DFD226855
:103EC0000023516AD26A0B4DA0FB054703FB057521
:103ED00000FB0355074FA1FB070C03FB07C701FBC2
:103EE0000371FCF76DF900196941BDE8F08100002C
:103EF0001C1A002040420F0030B50C4A0021136804
:103F0000DC6A4FF47A726043B0FBF2F55A6A586A81
:103F10009042FCD002D9A0EB020202E0A4EB020224
:103F2000024411440246A942F1D330BD1C1A0020BC
:103F3000D0E9013201699A60D0E901235A604A68E8
:103F4000824201D182684A60002202610868401EF4
:103F50000860086870470000034B036003F15C00D1
:103F6000086080201060704780200020044B0360B0
:103F700003F15C0008604FF480701060704700002F
:103F8000DC22002000F108014FF0FF32C0E90112ED
:103F9000C16001610021016070470021016170472B
:103FA00030B50B685A1C02D000F1080202E0026929
:103FB00004E02246546825689D42FAD953684B6054
:103FC00099608A60516008610168491C016030BDD8
:103FD00042684A6093688B60936859609160086199
:103FE0000168491C01607047502080F31188BFF3BD
:103FF0004F8FBFF36F8F0A494868401C4860012803
:104000000CD10848006810F0FF0F07D0502080F353
:104010001188BFF34F8FBFF36F8FFEE7704700002B
:104020002810002004ED00E00849486828B1401E2F
:10403000486001D180F311887047502080F31188C7
:10404000BFF34F8FBFF36F8FFEE7000028100020F3
:1040500070B5002827D0144DA0F108046168E86805
:10406000014207D1502080F31188BFF34F8FBFF377
:104070006F8FFEE722683AB1502080F31188BFF3BA
:104080004F8FBFF36F8FFEE78143616000F006F949
:1040900060686968084468602046FFF7C7FCBDE8AF
:1040A000704000F02DBD70BD101000204FF0E020DA
:1040B00000210161816105494FF47A720968B1FB01
:1040C000F2F1491E4161072101617047B80F0020DC
:1040D00010B5FCF75FF8114910280ED300F1E0206D
:1040E00090F8F0030A78904207D2502080F31188AC
:1040F000BFF34F8FBFF36F8FFEE7094800688968F1
:1041000000F4E060884207D9502080F31188BFF3A3
:104110004F8FBFF36F8FFEE710BD00002810002007
:104120000CED00E010B5084B002200BF53F8324000
:104130001CB1521C082AF9D310BD43F8321003EB0E
:10414000C201486010BD0000641A002070B5154619
:104150000E460446FFF748FF94F944100020491C1E
:1041600001D184F8440094F94510491C01D184F828
:104170004500FFF759FFA06B28B92A46314604F1E4
:10418000240000F02BF82046BDE87040FFF7DEBDAC
:1041900002498A6A0260496941607047BC0F002089
:1041A0000149012048627047BC0F002010B50C4641
:1041B00050B1094909681831FFF7F2FE2046BDE801
:1041C00010400121FFF756BA502080F31188BFF349
:1041D0004F8FBFF36F8FFEE7BC0F002070B5144602
:1041E0000D4668B10A4909681831FFF7F1FE0CB1B4
:1041F0004FF0FF3521462846BDE87040FFF73ABA38
:10420000502080F31188BFF34F8FBFF36F8FFEE70D
:10421000BC0F002030B587B00024039405AA04A980
:1042200003A80494FFF798FEDDE903010094CDE9AB
:104230000110002315A11748059A00F046FB164D02
:10424000002868631FD000F0BDFC012809D0401C85
:1042500019D1502080F31188BFF34F8FBFF36F8FB8
:10426000FEE7502080F31188BFF34F8FBFF36F8FAD
:104270004FF0FF3028630120E8616C6107B0BDE8B2
:10428000304000F045B807B030BD000049444C450F
:10429000000000000D390008BC0F00200248816BAF
:1042A000491C816370470000BC0F0020164810B500
:1042B000816B11B10121416210BD00214162816910
:1042C000124A01E0B9B1491E01EB810352F82330D3
:1042D000002BF7D001EB810302EB830202F108040B
:1042E00053685B685360A34201D15B685360DA682E
:1042F0000260816110BD502080F31188BFF34F8FA1
:10430000BFF36F8FFEE70000BC0F0020A41A00204F
:104310001CB5264908780190FF20087008788DF8B0
:1043200000009DF800009DF8002000F0F000904291
:1043300007D0502080F31188BFF34F8FBFF36F8FEA
:10434000FEE79DF800001A4B00F05000187007209F
:10435000986005E09DF8002052008DF80020401E76
:104360009DF800201206F5D49860032807D050204D
:1043700080F31188BFF34F8FBFF36F8FFEE74FF4C9
:1043800040709860019808700A48016841F4700113
:104390000160016841F070410160FFF787FE002075
:1043A0005860FBF7C1FE00201CBD000000E400E0E7
:1043B0002810002020ED00E038B5049D18B153B15D
:1043C000CAB181B120E0502080F31188BFF34F8F34
:1043D000BFF36F8FFEE7502080F31188BFF34F8F3C
:1043E000BFF36F8FFEE7502080F31188BFF34F8F2C
:1043F000BFF36F8FFEE739B1502080F31188BFF310
:104400004F8FBFF36F8FFEE750241C46012384F8C3
:1044100046302B460094FFF7A9FA204638BD00002D
:1044200070B50D46040025D0FFF7DEFDD4E90F205E
:10443000216802FB001161600021A1632168A16075
:104440000A46D4E90F01401E00FB0121E16021462C
:104450004FF0FF3001F8440F487004F110008DB1A7
:10446000FFF790FD04F12400FFF78CFDFFF7DCFD62
:10447000012070BD502080F31188BFF34F8FBFF330
:104480006F8FFEE721690029F0D000F001FB0028C2
:10449000ECD004494FF080500860BFF34F8FBFF35A
:1044A0006F8FE3E704ED00E02DE9FF4782B01D4682
:1044B0008A464FF00008040003D0BAF1000F08D07C
:1044C00011E0502080F31188BFF34F8FBFF36F8F3F
:1044D000FEE7206C38B1502080F31188BFF34F8F76
:1044E000BFF36F8FFEE7022D0AD1E06B012807D0E2
:1044F000502080F31188BFF34F8FBFF36F8FFEE71B
:1045000000F00EFA3F4F4FF000094FF0805648B9C7
:10451000049838B1502080F31188BFF34F8FBFF358
:104520006F8FFEE7FFF760FDA06BE16B884207D35A
:10453000022D05D00498D0B1B8F1000F1AD01EE0BA
:104540002A4651462046FFF76AF9616A19B104F11B
:10455000240000F09DFA20B13E60BFF34F8FBFF3FF
:104560006F8FFFF761FD012006B0BDE8F087FFF710
:104570005BFD22E06846FFF70BFE4FF00108FFF7F6
:1045800053FDFFF78BFEFFF72FFD94F94400401C0D
:1045900001D184F8449094F94500401C01D184F87D
:1045A0004590FFF741FD04A9684600F027F930B1B6
:1045B0002046FFF7CBFB00F0A3FA0020D4E7FFF77B
:1045C00013FDA06BE16B884213D1FFF72DFD04F1C1
:1045D00010000499FFF7EAFD2046FFF7B7FB00F053
:1045E0008FFA00289ED13E60BFF34F8FBFF36F8FCD
:1045F00098E7FFF719FD2046FFF7A8FB00F080FAC7
:1046000090E7000004ED00E02DE9F0471F469046DA
:104610008946040003D0B9F1000F08D011E0502002
:1046200080F31188BFF34F8FBFF36F8FFEE7206CCD
:1046300038B1502080F31188BFF34F8FBFF36F8FD5
:10464000FEE7022F0AD1E06B012807D0502080F34B
:104650001188BFF34F8FBFF36F8FFEE7FFF738FD71
:104660005020EFF3118680F31188BFF34F8FBFF313
:104670006F8FA06BE16B884206D3022F04D000201D
:1046800086F31188BDE8F08794F945503A464946CB
:104690002046FFF7C4F8681C04D06D1C84F8455010
:1046A0000120EDE7606A0028FAD004F1240000F050
:1046B000EFF90028F4D0B8F1000FF1D00121C8F8CB
:1046C0000010EDE72DE9F747002683B08A46040085
:1046D00003D0BAF1000F08D011E0502080F3118808
:1046E000BFF34F8FBFF36F8FFEE7206C38B15020C0
:1046F00080F31188BFF34F8FBFF36F8FFEE700F099
:104700000FF9DFF8F4804FF000094FF0805748B9F7
:10471000059838B1502080F31188BFF34F8FBFF355
:104720006F8FFEE7FFF760FCA56BC5B151462046D1
:10473000FFF762F86D1EA563206950B104F1100007
:1047400000F0A6F928B1C8F80070BFF34F8FBFF38F
:104750006F8FFFF769FC012006B0BDE8F087059870
:1047600008B11EB106E0FFF75FFC27E06846FFF7DF
:104770000FFD0126FFF758FCFFF790FDFFF734FC13
:1047800094F94400401C01D184F8449094F9450008
:10479000401C01D184F84590FFF746FC05A9684606
:1047A00000F02CF8002820460AD0FFF7CFFA00F0DE
:1047B000A7F92046FFF77CF90028B3D00020CBE70B
:1047C000FFF776F990B104F124000599FFF7EEFCAC
:1047D0002046FFF7BBFA00F093F90028A2D1C8F8F1
:1047E0000070BFF34F8FBFF36F8F9BE72046FFF73B
:1047F000ADFA00F085F995E704ED00E02DE9F04110
:104800000C46050011D0C4B1FFF7EEFB174B5A69F7
:104810006E682068911B471C17D02F689B6A9F42C7
:1048200019D0964217D8012410E0502080F3118847
:10483000BFF34F8FBFF36F8FFEE7502080F31188D7
:10484000BFF34F8FBFF36F8FFEE70024FFF7ECFB42
:104850002046BDE8F081884205D9401A20602846EC
:10486000FFF796FCF1E700202060DCE7BC0F00209A
:104870002DE9FF5F8346DDE90E87994616468A4695
:104880009000FFF799FA05001CD05C20FFF794FA1E
:10489000040014D00020256384F85900CDE90240BB
:1048A000CDE900874B46324651465846FFF76FF830
:1048B0002046FEF70DFF012004B0BDE8F09F28461A
:1048C000FFF7C6FB4FF0FF30F6E7F0B585B0DDE946
:1048D0000B640A9DA6B1DCB15C2700972663022613
:1048E00084F85960002604AFCDE90246CDE90057AF
:1048F000FFF74DF82046FEF7EBFE049805B0F0BD3B
:10490000502080F31188BFF34F8FBFF36F8FFEE706
:10491000502080F31188BFF34F8FBFF36F8FFEE7F6
:104920000548C16919B1806B18B10020704701209A
:104930007047022070470000BC0F0020014840690A
:1049400070470000BC0F00202DE9F0412E4C0027DD
:10495000A06B40B1206A401C2062606A00B1012750
:104960003846BDE8F0816669761C666113D16068DF
:10497000006838B1502080F31188BFF34F8FBFF328
:104980006F8FFEE76068A1686160A060A06A401C4C
:10499000A062FFF75BF9206BDFF87080864209D3D5
:1049A0006068006880B16068C068C56868688642F1
:1049B0000DD220632068C06A00EB800158F8210006
:1049C0000128CAD90127C8E74FF0FF30F1E7281DB9
:1049D000FFF7AEFAA86A18B105F11800FFF7A8FAB8
:1049E000E86AA169884200D9A06100EB800108EB68
:1049F0008100291DFFF7ECFAE86A2168C96A88423C
:104A0000CED30127CCE70000BC0F0020A41A002061
:104A100070B504004FF0000133D01B4D286884426C
:104A200007D0502080F31188BFF34F8FBFF36F8FF3
:104A3000FEE7206D38B1401E2065E36CE26A9A42C1
:104A40001FD040B11DE0502080F31188BFF34F8F7D
:104A5000BFF36F8FFEE7201DFFF76AFAE06CE0629C
:104A6000C0F13800A061E06AA969884200D9A86154
:104A7000064900EB800001EB8000211DFFF7A8FA3A
:104A80000121084670BD0000BC0F0020A41A0020C0
:104A900070B5C068C46854B104F118000646FFF749
:104AA00047FA144DA86B50B13146134815E0502019
:104AB00080F31188BFF34F8FBFF36F8FFEE7201D88
:104AC000FFF736FAE06AA969884200D9A8610B4964
:104AD00000EB800001EB8000211DFFF779FAE06A0E
:104AE0002968C96A884202D90120686270BD002025
:104AF00070BD0000BC0F00202C1F0020A41A002055
:104B00002DE9F0472C4D00242746A86B38B1FFF75C
:104B10006BFAA86B401EA863A86B40B146E050201A
:104B200080F31188BFF34F8FBFF36F8FFEE72969C2
:104B3000224E0120D1B3A6F5916980463068E0B1DC
:104B4000F068C46804F11800FFF7F2F9201DFFF7C0
:104B5000EFF9E06AA969884200D9A86100EB8001F9
:104B600009EB8100211DFFF733FAE06A2968C96A61
:104B70008842E3D3C5F82480E0E70CB1FFF766F87C
:104B80002C6A4CB14FEA0806FFF7DEFE00B16E62F8
:104B9000641EF9D100202862686A38B108490127EB
:104BA00038070860BFF34F8FBFF36F8FFFF73CFAF2
:104BB0003846BDE8F0870000BC0F00202C1F002005
:104BC00004ED00E010B586B0FEF7EAFD114CA068D8
:104BD000B8B100200390049005AA04A903A8FFF728
:104BE000C5F9DDE9032102208DE8070000230AA1B1
:104BF0000B48059AFFF769FEE06010B106B001208E
:104C000010BD502080F31188BFF34F8FBFF36F8F1B
:104C1000FEE70000F80F0020546D72205376630009
:104C2000293D00082DE9FF411E46134602000A9D5A
:104C30004FF0000016D0144CA768002F0FD0CDE91C
:104C400000130292062917DAFFF76AFE02284FF0D6
:104C500000030FD000226946A068FFF725FC04B0CE
:104C6000BDE8F081502080F31188BFF34F8FBFF370
:104C70006F8FFEE72A46EEE7002332466946384644
:104C8000FFF7C2FCEBE70000F80F002030550008EA
:104C90000000000000000000000000000000000014
:104CA00000020000180000000000000000000000EA
:104CB000010202030405060708090A0B0C0D0E0F7A
:104CC00010100000000000000000010203040607AD
:104CD00008090000000001020304000000000000B9
:104CE0000000000000000000000000FE02020202BE
:104CF0000202003F202020202020000000000000B1
:104D00000000000000000000000000FE020202029D
:104D10000202003F20202020202000FE020202028A
:104D20000202003F20202020202000FE020202027A
:104D30000202003F20202020202000FE020202026A
:104D40000202003F20202020202000FE020202025A
:104D50000202003F20202020202000FE020202024A
:104D60000202003F20202020202000000000000040
:104D70000000000000000000000000000000000033
:104D80000000000000000000000000000000000023
:104D90000000000000000000000000FE020202020D
:104DA0000202003F20202020202000FE02020202FA
:104DB0000202003F20202020202000FE02020202EA
:104DC0000202003F20202020202000FE02020202DA
:104DD0000202003F20202020202000FE02020202CA
:104DE0000202003F20202020202000FE02020202BA
:104DF0000202003F20202020202000FE02020202AA
:104E00000202003F20202020202000FE0202020299
:104E10000202003F20202020202000FE0202020289
:104E20000202003F20202020202000FE0202020279
:104E30000202003F20202020202000FE0202020269
:104E40000202003F20202020202000FE0202020259
:104E50000202003F20202020202000FE0202020249
:104E60000202003F20202020202000FE0202020239
:104E70000202003F20202020202000FE0202020229
:104E80000202003F20202020202000FE0202020219
:104E90000202003F2020202020200000000000000F
:104EA0000000000000000000000000000000000002
:104EB00000000000000000000000000000000000F2
:104EC00000000000000000000000000000000000E2
:104ED00000000000000000000000000000000000D2
:104EE00000000000000000000000000000F80000CA
:104EF0000000000000330000000000100C02100C45
:104F0000020000000000000000000040C07840C027
:104F1000780000043F04043F040000708888FC0807
:104F2000300000182020FF211E00F008F0806018DB
:104F3000000000310C031E211E0000F008887000E4
:104F400000001E21232C1927211000120E00000042
:104F500000000000000000000000000000E0180455
:104F60000200000000071820400000020418E000C2
:104F700000000040201807000000404080F0804002
:104F800040000202010F0102020000000000E000E8
:104F90000000000101010F010101000000000000FC
:104FA0000000009070000000000000000000000001
:104FB00000000001010101010100000000000000EB
:104FC0000000003030000000000000000000C03889
:104FD0000400006018070000000000E0100808103E
:104FE000E000000F102020100F0000001010F8004B
:104FF0000000000020203F20200000700808080862
:10500000F0000030282422213000003008080888F1
:1050100070000018202121221C000000804030F880
:10502000000000060524243F242400F8888888080E
:1050300008000019202020110E0000E01088889040
:105040000000000F112020201F00001808088868A9
:1050500018000000003E0100000000708808088869
:105060007000001C222121221C0000F008080810FA
:10507000E0000001122222110F00000000C0C00059
:105080000000000000303000000000000080000040
:105090000000000000E00000000000008040201040
:1050A0000800000102040810200000404040404079
:1050B00040000002020202020200000810204080AC
:1050C0000000002010080402010000704808088851
:1050D00070000000003037000000C030C828E81021
:1050E000E000071827282F2817000000C038E0002C
:1050F0000000203C23020227382008F888888870A6
:105100000000203F202020110E00C03008080808B1
:105110003800071820202010080008F80808081098
:10512000E000203F202020100F0008F88888E808C1
:105130001000203F20202320180008F88888E80865
:105140001000203F200003000000C030080808388D
:10515000000007182020221E020008F8080000089E
:10516000F808203F210101213F20000808F8080825
:1051700000000020203F2020000000000808F80860
:105180000800C08080807F00000008F888C02818D0
:105190000800203F20012638200008F80800000001
:1051A0000000203F20202020300008F8F800F8F808
:1051B0000800203F013E013F200008F830C00008F1
:1051C000F808203F200007183F00E01008080810EA
:1051D000E0000F10202020100F0008F80808080831
:1051E000F000203F210101010000E0100808081034
:1051F000E0000F10282830504F0008F88888888871
:105200007000203F2000030C302000708808080840
:1052100038000038202121221C00180808F808084E
:1052200018000000203F2000000008F808000008D7
:10523000F808001F202020201F000878880000C8E0
:105240003808000007380E01000008F800F800F8E0
:10525000080000033E013E030000081868808068D3
:10526000180820302C03032C30200838C800C83818
:1052700008000000203F2000000010080808C8387F
:1052800008002038262120201800000000FE02021D
:1052900002000000007F40404000000438C00000D1
:1052A0000000000000010638C00000020202FE00FB
:1052B0000000004040407F000000000004020204A3
:1052C00000000000000000000000000000000000DE
:1052D00000008080808080808080000202040000C6
:1052E000000000000000000000000000808080003E
:1052F000000000192424123F200010F000808000DC
:105300000000003F112020110E000000008080806E
:105310000000000E112020201100000080808090ED
:10532000F000001F202020103F200000808080809F
:105330000000001F242424241700008080E09090A7
:1053400020000020203F202000000000808080807E
:105350008000006B94949493600010F00080808033
:105360000000203F210000203F200080989800008E
:1053700000000020203F20200000000000809898BE
:10538000000000C08080807F000010F0000080805E
:105390008000203F240629302000001010F8000073
:1053A00000000020203F202000008080808080803E
:1053B0008000203F20003F20003F808000808080D0
:1053C0000000203F210000203F20000080808080DE
:1053D0000000001F202020201F008080008080000F
:1053E000000080FF912020110E000000008080004E
:1053F0008000000E11202091FF808080800080803E
:10540000800020203F21200001000000808080805B
:1054100080000033242424241900008080E0808050
:1054200000000000001F202010008080000000808D
:105430008000001F202020103F208080800080807E
:10544000800000030C300C0300008080008080008E
:105450008080010E300C07380601008080800080BB
:1054600080000020310E2E312000808080000080DE
:10547000808000818678180601000080808080800E
:1054800080000021302C222130000000000000FCB0
:10549000020200000000013E404000000000FF004A
:1054A000000000000000FF0000000202FC000000FD
:1054B000000040403E010000000000020102020422
:1054C00002000000000000000000000000000000DA
:1054D00000000000000000000000000078550008F7
:1054E000A0550008985500083C5500087055000864
:1054F00088550008A8550008905500084455000834
:10550000405500086C550008485500084C550008E7
:105510005055000854550008585500085C550008BF
:10552000605500086455000868550008805500085B
:1055300064656661756C745461736B002B000000C8
:105540002D0000003000000031000000320000009B
:105550003300000034000000350000003600000079
:105560003700000038000000390000004300000050
:1055700052657475726E0000506F7765720000009E
:1055800052657065617400004C656674000000002F
:10559000526967687400000054657374000000006D
:1055A0004D656E7500000000506C617900000000D0
:1055B000D05500080000002078100000CC02000840
:1055C000A45700087810002060290000F634000875
:1055D00002170001202B06010B02160426014B02C4
:1055E00097044A01930226055D01BA0275058801F8
:1055F00010032006B8017003E006EE01DC03B807D3
:105600002E200998030200010002000D210A210C3E
:1056100032060C01D61832030E410672000632041F
:1056200016320436610CE12A0211022472022A5257
:1056300004F0021B010C720248619C2106520460B6
:1056400002130078016CA221CCC53E0110A2254AAC
:10565000618456065C52012452140C4106F2052462
:105660000213051E612A92038481D89614AA02238C
:10567000027E0110665207D281A8920724A11E72F1
:10568000067EA18AA59EC1AE92023001160C02319F
:10569000053C0512D49E03420392019CE17869D037
:1056A0008D7203520106C54A61FC25CE3A022ED204
:1056B0000212252C43320164810C013636412A0244
:1056C00019030C6166011018320526410C01B8BAA5
:1056D000E10CF2040C52040CD20612451A0247B82F
:1056E00042E14EA1D2612A7E02C205022304244176
:1056F0001245328544ADE00461B4817E025D047ED2
:105700000221010656026EADB0040D1CAA047E06ED
:1057100010050E27B8DA04FE0278060D10160501F2
:105720001E789207788DCE04FEB8CE04617E0114F7
:10573000780D86C80441188D1E039A028E7A02469F
:10574000694C061706BC0DFFC8040DFFC8040DD632
:10575000C804BE062A038DF2077E071E090E21B873
:105760001404B202480D100405014066E16C0DFFFF
:10577000A2030DFFA2030DFF6A0871066C0400006E
:10578000109F0F00046E24F4000112AA012D1A10BC
:105790002DBC03100A601500200C160020540401D3
:0457A000328900004A
:04000005080000ED02
:00000001FF
